:020000040800F2
:1000000048B50420E1010008958A0008D37500086E
:10001000918A0008D51900086996000800000000C0
:10002000000000000000000000000000458C0008F7
:100030000320000800000000998A0008478C00088F
:10004000FB010008FB010008FB010008FB010008A0
:10005000FB010008FB010008FB010008FB01000890
:10006000FB010008FB010008FB010008FB01000880
:10007000FB010008FB010008FB010008FB01000870
:10008000FB010008FB010008FB010008FB01000860
:10009000FB010008FB010008FB010008FB01000850
:1000A000FB010008FB010008FB010008FB01000840
:1000B000FB010008FB010008FB010008FB01000830
:1000C000FB010008FB010008FB010008FB01000820
:1000D000FB010008FB010008FB010008FB01000810
:1000E000FB010008FB010008FB010008FB01000800
:1000F000FB010008FB010008FB010008FB010008F0
:10010000FB010008FB010008FB010008FB010008DF
:10011000FB010008FB0100081D8D0008FB01000821
:10012000FB010008C91E0008FB010008FB010008D4
:10013000FB010008FB010008FB010008FB010008AF
:10014000FB010008FB010008FB010008FB0100089F
:10015000FB010008FB010008FB010008FB0100088F
:10016000FB010008FB010008FB010008FB0100087F
:10017000FB010008FB010008D11D00080000000081
:10018000FB010008FB010008FB010008FB0100085F
:10019000FB010008FB010008FB010008FB0100084F
:1001A000457C0008357C0008FB010008FB010008C5
:1001B000FB010008FB010008FB010008FB0100082F
:1001C000FB010008FB010008DFF810D000F058FB2D
:1001D0000048004775FB0008AFF3008048B50420D5
:1001E0000648804706480047FEE7FEE7FEE7FEE7D1
:1001F000FEE7FEE7FEE7FEE7FEE7FEE7098D000803
:10020000C90100082DE9F05F0546002092469B4693
:1002100088460646814640241BE02846414647461C
:10022000224600F00CFA53465A46C01A914110D3A8
:1002300011461846224600F0F3F92D1A67EB010823
:100240004F4622460120002100F0EAF917EB000991
:100250004E41201EA4F10104DFDC484631462A4607
:100260004346BDE8F09F40EA01039B0703D009E045
:1002700008C9121F08C0042AFAD203E011F8013B92
:1002800000F8013B521EF9D27047D2B201E000F8EB
:10029000012B491EFBD270470022F6E710B513462A
:1002A0000A4604461946FFF7F0FF204610BD30B558
:1002B00004460020034600E05B1C934203D2E05C4E
:1002C000CD5C401BF8D030BD2DE9FE4F804681EA61
:1002D0000300C00F0C46009021F0004123F00045C0
:1002E000B8EB0200A94105D24046214690461C4683
:1002F0000B46024623F00040104347D0270DC7F3BA
:100300000A00C3F30A510290401A019040286BDAA8
:10031000C3F3130040F4801B0098924620B10023E1
:10032000D2EB030A63EB0B0B01985946C0F1400274
:10033000504600F075F906460D4650465946019A5A
:1003400000F08DF910EB08006141002487EA11529A
:1003500084EAE7731A4340D0009A62B3019A012AF3
:100360004FEA075215DC001B61EB02014FF000421F
:1003700002EA0752CDE90042001C41F580113246E5
:100380002B4600F08DF903B0BDE8F08F40462146C2
:10039000F9E7001B61EB0201001C41F58013001816
:1003A0005B412018A2F5001747EB030140EAD57026
:1003B000B6196D4111E06D084FEA360645EAC07581
:1003C0004FEA0752001B61EB0201001C41F580114E
:1003D00049084FEA30000019514132462B4603B01C
:1003E000BDE8F04F00F04DB9009801224000002315
:1003F000D0EB020263EBE073009821464FEAE07411
:10040000B8EB000061EB0401E9E783F000435BE730
:1004100081F0004158E72DE9FE4F81EA030404F022
:10042000004421F0004100944FF0000B23F0004302
:1004300050EA01045ED052EA03045BD0C3F30A54CD
:10044000C1F30A552C44A4F2F3340194A0FB0254E6
:10045000C1F3130141F48011C3F3130343F4801378
:1004600001FB024400FB034E840A970A44EA8154CC
:1004700047EA8357A4FB076802958D0A05FB0785A9
:100480004FEA932C04FB0C542705029D4FEA0658B3
:1004900047EA1637B5EB08056EEB070C870E920E90
:1004A00047EA811742EA8312A7FB0201B6EB0B0170
:1004B00064EB00042B0D43EA0C335E1844EB1C5034
:1004C000DA465146E7FB0201C5F313044FEA0B334A
:1004D00043EA14534FEA0432019C43EA0603A4F1B1
:1004E0000C040294009CCDE900B400F0D9F803B0EC
:1004F000BDE8F08F00200146F9E70EB5C10F80EA94
:10050000E0700844CA07002140F233438DE80E0032
:100510000A460B4600F0C4F803B000BD10B500F069
:10052000004420F00040C20DC0F3160040F400006B
:100530007F2A02DA0020014610BD0021962A03DC42
:10054000C2F19602D04002E0963A00F069F8002C21
:10055000F2D00023D0EB030063EB010110BD70B5B6
:10056000C1F30A5201F000450024C1F3130140F227
:10057000FF3341F480119A4201DA002070BD40F24D
:1005800033439A42A2F2334203DC524200F057F85E
:1005900000E090402C43F1D0404270BDC1F30A52BC
:1005A00010B5C1F3130140F2FF3341F480119A42B8
:1005B00001DA002010BD40F233439A42A2F23342E6
:1005C00003DC524200F03BF810BD904010BD00F03B
:1005D000004230F000400AD0C10D01F56071C0F357
:1005E000160042EA0151C20840071143704700203B
:1005F0000146704730B50B460146002020220124F9
:1006000009E021FA02F59D4205D303FA02F5491BE0
:1006100004FA02F52844151EA2F10102F1DC30BDF6
:10062000202A04DB203A00FA02F1002070479140B2
:10063000C2F1200320FA03F3194390407047202AA7
:1006400004DB203A21FA02F00021704721FA02F37C
:10065000D040C2F120029140084319467047202A39
:1006600006DBCB17203A41FA02F043EAE07306E0DA
:1006700041FA02F3D040C2F12002914008431946EA
:10068000704710B5141E73F1000408DA401C41F1E4
:10069000000192185B411A4301D120F0010010BD06
:1006A0002DE9F04D92469B4611B1B1FA81F202E07C
:1006B000B0FA80F220329046FFF7B2FF04460F46B0
:1006C00040EA0A0041EA0B0153465A46084313D058
:1006D000114653EA010019D0C8F140025046FFF715
:1006E000AEFF05460E46504659464246FFF798FF74
:1006F000084305D0012004E020463946BDE8F08DCE
:100700000020054346EAE0762C4337430A98630508
:10071000E40AA0EB08000022FD0A44EA47540A302C
:1007200002D500200146E9E7010510196941DDE91C
:10073000084500196941BDE8F04DA2E72DE9F04DEB
:1007400081EA030404F0004B21F0004514464FF009
:10075000000A23F0004150EA050220D054EA0102C9
:100760001DD0C5F30A570246C5F31303C1F31300A6
:10077000C1F30A5640F4801543F48013A7EB060832
:10078000101BD64608F2FD3873EB050002D308F1C2
:10079000010801E092185B41B8F1000F03DA002074
:1007A0000146BDE8F08D00204FF4801106468446D6
:1007B0000EE0171B73EB050705D3121B63EB050354
:1007C00006434CEA010C49084FEA300092185B419D
:1007D00050EA0107EDD152EA030012D082EA040088
:1007E00083EA0501084305D0101BAB4106D2012264
:1007F000002306E000224FF0004302E06FF0010208
:1008000053101AEB06004CEB085110EB0A0041EBB9
:100810000B01BDE8F04DFFF734BFC1F30A52C1F33D
:10082000130140F2FF3341F480119A4202DA0020B2
:100830000146704740F233439A42A2F2334202DC4F
:100840005242FFF7FCBEFFF7EBBE000030B5041EBE
:1008500071F1000404DB4FF00044404264EB0101FD
:10086000141E73F1000405DB1C464FF00043524296
:1008700063EB0403994208BF904230BD00207047EB
:10088000064C074D06E0E06840F0010394E80700DD
:1008900098471034AC42F6D3FFF79AFC98F602085A
:1008A000B8F6020870B58C1810F8015B15F0070354
:1008B00001D110F8013B2A1106D110F8012B03E0F9
:1008C00010F8016B01F8016B5B1EF9D12B0705D401
:1008D0000023521E0DD401F8013BFAE710F8013B4A
:1008E000CB1A921C03E013F8015B01F8015B521E66
:1008F000F9D5A142D8D3002070BD0000584909683D
:1009000021F44031574AC2F804131146D1F80413B8
:1009100042681143524A11600168496821F48071AC
:100920000268516001684A68016942EA012102686F
:1009300051600168496821F04071026851600168A6
:10094000496882681143026851600168896821F42E
:1009500000610268916001688968C2681143026899
:100960009160414A816A914218D00168896821F0FA
:1009700070610268916001688968826A1143026847
:1009800091600168896821F04051026891600168B6
:100990008968C26A1143026891600BE00168896846
:1009A00021F07061026891600168896821F040510E
:1009B000026891600168896821F002010268916013
:1009C00001688A68816942EA4101026891602021D8
:1009D000095CA1B10168496841F400610268516095
:1009E0000168496821F460410268516001684A6801
:1009F000416A491E42EA41310268516005E00168DE
:100A0000496821F40061026851600168C96A21F4F3
:100A100070010268D1620168CA6A818B491E42EA8C
:100A200001510268D1620168896821F4007102688D
:100A3000916001688A6890F8301042EA41210268AA
:100A400091600168896821F48061026891600168A1
:100A50008A68416942EA812102689160704700001A
:100A600004230140002001400100000F1CB5114883
:100A700000680090002269460F480AF0ABFD019023
:100A80000198C0B238B10198020AC1B20BA008F0B7
:100A9000EDFD01F039FB0021074800680AF01AFE5D
:100AA000114908600021044800680AF023FE0F493C
:100AB00008601CBD30B102083C75002061695F6EA2
:100AC0006574776F726B5F637265617465206572C0
:100AD000726F72202D20747970653D256420636FDC
:100AE00064653D25640D0A004475002048750020AA
:100AF0001CB5114800680090002269460F480AF0B2
:100B0000ADFC01900198C0B238B10198020AC1B29F
:100B10000BA008F0ABFD01F0F7FA002107480068D0
:100B20000AF01CFD124908600021044800680AF020
:100B300025FD104908601CBD34B102084075002035
:100B400061695F6E6574776F726B5F315F63726549
:100B5000617465206572726F72202D2074797065E2
:100B60003D256420636F64653D25640D0A00000027
:100B70004C75002050750020F8B504460D460F480E
:100B8000006844600E48006845600D4802680B48E4
:100B900001680C4800680AF0BDFD0646012E0CD025
:100BA000084800680AF070FD00900098020AC1B27F
:100BB00005A008F05BFD01F0A7FAF8BD4475002020
:100BC000487500203C75002041492061695F6E65D1
:100BD00074776F726B5F72756E206572726F7220C0
:100BE0002D20747970653D256420636F64653D2513
:100BF000640D0A00F8B504460D460F4800684460CD
:100C00000E48006845600D4802680B4801680C48B2
:100C100000680AF0C3FC0646012E0CD008480068A4
:100C20000AF076FC00900098020AC1B205A008F014
:100C30001DFD01F069FAF8BD4C75002050750020CB
:100C40004075002041492061695F6E6574776F725D
:100C50006B5F315F72756E206572726F72202D202E
:100C6000747970653D256420636F64653D25640D6E
:100C70000A00000070477047F8B505460126264C6B
:100C8000002161612161002060608021E16000211C
:100C9000A1612021A1602148206000F03BF9602083
:100CA00011F07AFB962833D11D481E490860602058
:100CB0001D4908600021204600F03CF8204601F064
:100CC0009FFD022D15D11849098888B21549096878
:100CD0000A680321904740F20F1040F2BF336822A8
:100CE00050210090204601F0C1FC204601F000FD9B
:100CF0000AE00D49098888B20A4909680A68294644
:100D00009047204601F0D5FC08480560002600E029
:100D100004263046F8BD0000F471032000000550A1
:100D2000A4750020B0750020B8750020B4750020AF
:100D30007047000030B587B004460D4600BF6D48CF
:100D4000006840F001006B4908600846006800F048
:100D50000100019000BF00BF00BF081F006840F401
:100D60008000091F08600846006800F480000190B8
:100D700000BF00BF00BF0846006840F001000860E7
:100D80000846006800F00100019000BF00BF00BFEE
:100D90000846006840F0080008600846006800F057
:100DA0000800019000BF00BF00BF0846006840F087
:100DB000100008600846006800F01000019000BFB5
:100DC00000BF00BF0846006840F0400008600846C9
:100DD000006800F04000019000BF00BF00BF08465F
:100DE000006840F0800008600846006800F080005D
:100DF000019000BF00BF502002900220039001200C
:100E00000490032005900D20069002A93A4803F0B3
:100E1000B5FB0820029002200390012004900320DB
:100E200005900D20069002A9344803F0A7FB60202E
:100E300002900220039001200490032005900D20D1
:100E4000069002A92E4803F099FB4FF4007002901F
:100E50000220039001200490032005900D200690AD
:100E600002A9284803F08AFB4FF4BC4002900220FC
:100E7000039001200490032005900D20069002A904
:100E8000214803F07BFB4FF00070204948600021AF
:100E90001E488160C1604FF4806101618900416139
:100EA000890081618911C1614902016200214162A9
:100EB000032181620021C162016315481349086062
:100EC00000BF0846A064846300BF00220F214E20AB
:100ED00004F09AFA4E2004F087FA00220F213920FC
:100EE00004F092FA392004F07FFAA06C03F024F9A0
:100EF00007B030BD3438024000000240000C024010
:100F00000010024000180240001C024044720320FE
:100F10002864024000B587B000BF1248006840F066
:100F20008000104908600846006800F080000190C9
:100F300000BF00BF4FF4005002900120039000203A
:100F400004900320059002A9074803F017FB002234
:100F50004FF40051044803F017FC032003F0B2F9EA
:100F600007B000BD30380240001C0240704700004E
:100F70007CB5044600F0FEF9054600F0EBF90646A4
:100F80000020CDE900040848006800EB800202EB75
:100F9000C002064800EB82002B463246416A0248F6
:100FA000006806F003FE7CBDE4750020DC720320BF
:100FB00070B504460D46082007490860C020486106
:100FC00005210548C1614FF480300349C8620846D5
:100FD00004F0BEFA70BD0000A47303202DE9F041B7
:100FE00006460F461446A4F120001449096801EB97
:100FF0004101134B03EB81018968C98848430F49BC
:10100000096801EB410103EB810189688988CD1DE5
:10101000E91705EB5171C910084B1B6803EB43033B
:10102000DFF81CC00CEB83039B681B6800FB0132DC
:101030003946304600F0E6FFBDE8F081E475002057
:101040008C7303202DE9FF5F044615469846012660
:101050004FF0000900274FF0000AAB4600E07F1C6C
:101060001BF8011B0029FAD100F074F93D49096809
:1010700001EB41013C4A02EB810189688988B0FBA0
:10108000F1FAB8F1010F06D0B8F1020F15D0B8F19E
:10109000030F22D10FE0AAEB07003249096801EBE8
:1010A0004101314A02EB810189688988484304EB98
:1010B000500086B213E0264611E0AAEB070129484A
:1010C000006800EB4000284A02EB800080688088BE
:1010D000624201FB002086B201E0264600BF00BF4D
:1010E000012E02DBB6F5004F00DB012614E02A7862
:1010F00030460199FFF772FF1A48006800EB400084
:10110000194901EB800080688088304486B26D1CEC
:1011100009F101001FFA80F900F01CF91149096872
:1011200001EB4101104A02EB81018968898809FBC2
:10113000110080B20B49096801EB410102EB81010A
:1011400089688988884201D3012000E0002029783D
:1011500009B1012100E0002108400028C7D1BDE805
:10116000FF9F0000E47500208C7303202DE9FC41F3
:1011700004460D46174600BF2048006800EB80017A
:1011800001EBC0011E4800EB81000069022811D16B
:1011900000F0E0F800FB05411848006800EB800211
:1011A00002EBC002164800EB8200406A022202FBFA
:1011B000010610E000F0CEF800FB05410F48006882
:1011C00000EB800202EBC0020D4800EB8200406A97
:1011D000042202FB01060948006800EB40000949AF
:1011E00051F82000002101233A46CDE90010314694
:1011F0000248006806F0DAFCBDE8FC81E4750020D6
:10120000DC7203208C73032030B503460C4617486C
:10121000006800EB800101EBC001154800EB810084
:101220000069022810D100F095F804FB003041005D
:101230000E48006800EB800505EBC0050C4800EB8C
:101240008500406A42520FE000F084F804FB003051
:1012500081000648006800EB800505EBC0050448E6
:1012600000EB8500406A425030BD0000E47500206C
:10127000DC7203202DE9F04105460E4617461C4658
:101280003A4631462846FFF771FF301981B23A4697
:101290002846FFF76BFF22463146284600F008F843
:1012A000E91988B22246314600F002F8BDE8F08123
:1012B0002DE9FC4104460D46174600BF2248006850
:1012C00000EB800101EBC001204800EB81000069C8
:1012D000022811D100F03EF800FB05411A480068D1
:1012E00000EB800202EBC002184800EB8200406A6B
:1012F000022202FB010610E000F02CF800FB054181
:101300001148006800EB800202EBC0020F4800EBBE
:101310008200406A042202FB010600F01BF8A0F1E3
:1013200001080948006800EB4000094951F8200015
:101330003B4601223146CDE900800348006806F0B3
:1013400035FCBDE8FC810000E4750020DC72032060
:101350008C7303200548006800EB800101EBC0019D
:10136000034800EB8100806A70470000E4750020AC
:10137000DC7203200548006800EB800101EBC0012E
:10138000034800EB8100C06A70470000E47500204C
:10139000DC72032010B528212548416109218161B3
:1013A0003521C1610B21016240F21B11816240F2C3
:1013B0001521416240F21D11016340F23521C162E5
:1013C0000021FFF7F5FD4FF4F071194801664FF465
:1013D00088714166002180F8341080F8351080F85B
:1013E0003610002012494860002111488160C16018
:1013F000016110480E490860084603F0BDFD18B9A8
:1014000000210B4800F06EF8094803F033FE01227A
:101410001103094803F0B8F901220821074803F035
:10142000B3F900F061F9064800F038F9002010BD6A
:10143000A4720320006801400020024000280240FE
:10144000BC75002030B58DB004460D4600200090DC
:10145000FFF780FF01904FF4A070019000200290F0
:10146000FFF788FF0390022004900995FF20059064
:10147000002006908DF8300000218DF831108DF895
:1014800032104FF4C060079007200890FFF762FF0A
:101490000A90FFF76FFF0B904FF4A0700A9022465E
:1014A00069460C4803F038FD4FF0FF3004EB44016F
:1014B000094A02EB81014860084804EB440102EB51
:1014C00081018860064804EB440142F821000DB018
:1014D00030BD0000A47203208C730320BC75002073
:1014E0000000FFFF30B587B004460D4600BF6248DC
:1014F000006840F08060604908600846006800F0BD
:101500008060019000BF00BF00BF5B4814380068D6
:1015100040F400005849143908600846006800F497
:101520000000019000BF00BF00BF0846006840F007
:10153000100008600846006800F01000019000BF2D
:1015400000BF00BF0846006840F040000860084641
:10155000006800F04000019000BF00BF00BF0846D7
:10156000006840F4807008600846006800F48070ED
:10157000019000BF00BF00BF0846006840F4007043
:1015800008600846006800F40070019000BF00BFCA
:1015900000BF0846006840F48060086008460068A4
:1015A00000F48060019000BF00BF00BF08460068E3
:1015B00040F4807008600846006800F48070019074
:1015C00000BF00BF00BF0846006840F480600860AC
:1015D0000846006800F48060019000BF00BF102042
:1015E00002900220039000200490022005900E201B
:1015F000069002A9214802F0C1FF4FF480500290EA
:10160000022003900920069002A91D4802F0B6FFAF
:101610004FF446400290022003900E20069002A94B
:10162000184802F0ABFF4EF6FF70029002200390C4
:101630000E20069002A9144802F0A0FFF7200290A5
:10164000022003900E20069002A9104802F096FF97
:101650004FF4805002900120039002A9094802F043
:101660008DFF082002900120039002A9074802F094
:1016700085FF07B030BD0000443802400010024032
:1016800000180240002002400024024000280240CE
:101690000149086070470000E475002004490968AA
:1016A00001EB4101034A02EB8101886070470000B1
:1016B000E47500208C7303200349096801EB4101A4
:1016C000024A42F821007047E47500208C73032021
:1016D00070B504460D4622462946024803F035FE01
:1016E00070BD0000A472032010B51E481E4908609A
:1016F00002201E49086007204860042088600720F7
:10170000C86002200861486188610020164948606D
:101710000021154881600421C16010210161402130
:101720004161890081610021C1614FF40061016262
:10173000490041620021816200F068F80B490A48C3
:1017400005F021F818B101200949087002E00020D5
:101750000749087040F2036000F00CF80448007874
:1017600010BD0000400100A0287403205C74032019
:10177000E875002038B5044600200090012021497A
:10178000086010204860012088600020C8604FF683
:10179000FF721D4805F037F8012002F093FD02208A
:1017A0001849086010204860012088600020C86047
:1017B0004FF6FF72144805F026F80320114908601F
:1017C00010204860082088600020C8604FF6FF7233
:1017D0000D4805F018F84FF40870009004200949EE
:1017E000086010204860012088600098C8604FF6AB
:1017F000FF72054805F007F82146034804F0E8FFAA
:1018000038BD0000787403202874032030B587B0F9
:1018100004460D4600BF6648006840F00100644978
:1018200008600846006800F00100019000BF00BF9A
:1018300000BF5F480838006840F480005C49083900
:1018400008600846006800F48000019000BF00BFF7
:1018500000BF0846006840F00400086008460068C1
:1018600000F00400019000BF00BF00BF0846006800
:1018700040F0080008600846006800F00800019089
:1018800000BF00BF00BF0846006840F010000860BD
:101890000846006800F01000019000BF00BF00BFC4
:1018A0000846006840F0200008600846006800F024
:1018B0002000019000BF00BF00BF0846006840F054
:1018C000400008600846006800F04000019000BF3A
:1018D00000BF00BF0846006840F08000086008466E
:1018E000006800F08000019000BF00BF022003905C
:1018F00001200490022005900C2006900820029000
:1019000002A92C4802F03AFE4CF20370029002A9A0
:10191000294802F033FE4FF68370029002A927484F
:1019200002F02CFE4FF63F00029002A9244802F07C
:1019300025FE48F23310029002A9224802F01EFE52
:101940002820029002A9204802F018FE00201F491A
:10195000486080211D4881608900C16049000161A3
:1019600089004161890081610021C1614FF400312A
:10197000016200214162032181620021C162016391
:1019800013481249086000BF08462063846300BF03
:1019900002F07AFA0D4802F0CFFB00220F21382026
:1019A00003F032FD382003F01FFD07B030BD00000A
:1019B0003838024000080240000C0240001002408B
:1019C0000014024000180240001C024088740320EA
:1019D0001064024000BFFEE710B50446204602F046
:1019E00071FC10BD10B5024805F0CCFF10BD000021
:1019F000A07103203EB504460D4600200290012050
:101A000002A903462A46CDE900102146024806F005
:101A100093F89DF808003EBDA071032037B582B051
:101A200004460D46012004A903462A46CDE90010CC
:101A30002146024806F09DF805B030BDA071032094
:101A40002DE9F041002408F0A0FB050013D0364832
:101A5000006840F25146721C0021C0F30A000123C5
:101A6000A0F58067493F04D0B04207D141F00101A1
:101A700008E0194606E02046BDE8F081904201D119
:101A8000012000E00020014328494FF0180008D051
:101A900088608868182843D18B6088680028FCD14A
:101AA0003DE0234E4FF00A47224AD6F800C0B7EB7C
:101AB0004C5F08D110601068182831D1136010688D
:101AC0000028FCD12BE0D6F800C0CCF30A0CACF512
:101AD0008067833F0AD037684FF01042B2EB475F10
:101AE00012D188608868182809D019E01060106841
:101AF000182815D1136010680028FCD10FE08B6006
:101B000088680028FCD10AE03268520508D1886054
:101B10008868182804D18B6088680028FCD10124CB
:101B2000284608F0A5FBA6E7002004E000300240AC
:101B30000010005C084C02582DE9F04108F025FB2C
:101B400035490B6840F251456C1C0021C3F30A0370
:101B50000122A3F58066493E04D0AB4204D141F096
:101B6000010105E0114603E0A34201D1012300E099
:101B700000232A4D2A4E19432A4908D08A608A68D0
:101B8000002AFCD10D600968B14241D0FEE7264C25
:101B90004FF00A4C254BD4F800E0244F0837BCEB3B
:101BA0004E5F08D13A6039680029FCD11D60196880
:101BB000B1422DD0FEE7D4F800E0CEF30A0EAEF528
:101BC000806CBCF1830C0ED027684FF01043B3EB50
:101BD000475F11D18A608A68002AFCD10D600968CC
:101BE000B14215D0FEE73A6039680029FCD11D608A
:101BF0001968B1420CD0FEE723685B0508D18A6002
:101C00008A68002AFCD10D600968B14200D0FEE765
:101C100008F02EFBBDE8F081002004E0C2A507F427
:101C2000CDB5E8B5003002400010005C004C025811
:101C300070B50546AC6BA06C406D022806D0012043
:101C400084F83500E06C40F04000E064204600F08D
:101C50006EFD70BD2DE9F04106460025B46BA06B0A
:101C600068B3A06C0068006800F40025A06B00F069
:101C7000010078B975B1A06C0068C568E26B0823F3
:101C800003FB02510022A06C01F0FEF8A06B401E85
:101C9000A0632FE0A06C0068006800F4002048BB3F
:101CA000A06C00680569E26B082303FB0251012266
:101CB000A06C01F0E9F8A06B401EA0631AE0A06CD4
:101CC0000068006800F4002020B1D4E9110109681F
:101CD000C8600FE0A06C0068006800F4002048B9FC
:101CE000656CE06B042101FB0050A16C0968086180
:101CF000206CA063A06B216C88420ED12068C06864
:101D000040F001002168C8602068006800F002000F
:101D1000022802D1012084F8350000204FE0002184
:101D20004AE001EB410242F64C53134440F21B32AD
:101D300002FB0032244B33F8123001EB410242F631
:101D40004C571744421E40F21B3C02FB0C721E4FC4
:101D500037F81220134401EB410242F64C57174466
:101D6000421C02FB0C72184F37F8122013444A1C15
:101D700002EB420242F64C571744624602FB0072E5
:101D8000114F37F8122013444A1E02EB420242F66A
:101D90004C571744624602FB00720B4F37F8122073
:101DA0001A44052392FBF3F2C0EBC00301EBC3031B
:101DB000064F27F81320491C3829B2DB401C38286D
:101DC000ADDBBDE8F0810000000000C0000020C0D5
:101DD00010B5024800F0B6FC10BD0000C86B03202F
:101DE0002DE9F0470C4617469C46DDF82080D0F8D8
:101DF0000090D9F8449009F0404948EA0C4A49EA71
:101E00000A09D0F800A0CAF84490D0F80090C9F8A8
:101E10003C70D0F80490B9F5403F4ED104F07F46B5
:101E200004F47F0104F47F42E3B2D0F80890B9F1E2
:101E3000000F06D142EA010949EA060949EA030509
:101E400036E0D0F80890B9F1010F04D142EA010957
:101E500049EA03052CE0D0F80890B9F1020F09D146
:101E6000C90C920ADB084FEA421949EAC12949EA3A
:101E700003051DE0D0F80890B9F1030F0CD1F60F5F
:101E8000C90CD20ADB084FEA421949EA812949EA1A
:101E9000C63949EA03050BE0360F090D120B1B0981
:101EA0004FEA021949EA012949EA063949EA0305D4
:101EB000D0F80090C9F8385003E0D0F80090C9F885
:101EC0000C40BDE8F087000010B5024802F014F89D
:101ED00010BD0000186C0320014608781038182344
:101EE000B0FBF3F20848805CC865032A05D908688E
:101EF0006FF30900001D886503E008686FF30900AF
:101F00008865886D7047000038B1020801460020DE
:101F10008A6A8B69CBB932B1012A0DD0022A03D06B
:101F2000032A10D10EE000BFCB6A03F08073B3F137
:101F3000807F00D1012007E0CB6AB3F1C07F00D1E0
:101F4000012001E000E000BF34E08B69B3F5005FE1
:101F50001AD132B1012A07D0022A03D0032A11D1A3
:101F60000AE000BF01200EE0CB6A03F08073B3F1FA
:101F7000807F00D1012006E0CB6AB3F1C07F00D1A1
:101F8000012000E000BF15E032B1012A05D0022A8D
:101F900004D0032A0CD103E000BF00BF012008E0F9
:101FA000CB6A03F08073B3F1807F00D1012000E0A1
:101FB00000BF00BF704710B5046863608468402CA0
:101FC00004D10468A2600468E16003E00468A160D1
:101FD0000468E26010BD30B50468246824F48024ED
:101FE00005682C60046863608468402C04D1046830
:101FF000A2600468E16003E00468A1600468E26034
:1020000030BD70472DE9FC4F0746894692464FF098
:10201000000800263A48006800EB4000394901EB0F
:1020200080008068B0F806B03548006800EB4000DA
:1020300001EB800080688588E81DC11700EB5171B5
:10204000C910C5EBC101C9B2019100BF54E0E81D40
:10205000C11700EB5171C91001FB08A4C11700EBB7
:102060005171C910012904D0022905D0032909D1D1
:1020700009E0207800900FE06078217840EA0120A4
:10208000009009E000BF20780004617840EA012058
:10209000A1780843009000BF00BF002624E0A91BE0
:1020A00001980844401E012101FA00F000990840FF
:1020B00060B11349096801EB4101124B53F821202B
:1020C000B91988B24946FFF79FF80CE00C49096836
:1020D00001EB41010B4B03EB81014A68B91988B24E
:1020E0004946FFF791F8761CAE42D8D309F10100BA
:1020F0001FFA80F908F10108D845A8D3BDE8FC8F84
:10210000E47500208C73032072B600BFFEE7024620
:102110000868B0B9D1E901031843CB6818430B69CB
:1021200018434B6918438B691843CB6918430B6AF2
:1021300018434B6A184313686FF30E03184310607B
:1021400019E0D1E9070318434B6A1843136823F4D5
:10215000F84318431060D1E901031843CB681843D2
:102160000B6918434B6918438B69184353686FF325
:102170000E0318435060002070470246506943F632
:10218000FE73984340EA410050610020704710B54B
:102190000346D1E9000420438C68641E40EA4410E1
:1021A000CC6840EA44201C696FF315042043186191
:1021B000002010BD30B50346FAB90868401E4C68CF
:1021C000641E40EA04148868401E44EA0024C8687B
:1021D000401E44EA0034088A401E44EA0044888ACB
:1021E000401E44EA0054087E401E44EA00609C6899
:1021F00004F070442043986022E0C868401E040345
:10220000888A401E44EA00509C680E4D2C402043B2
:1022100098600868401E4C68641E40EA0414886890
:10222000401E44EA0024088A401E44EA0044087E16
:10223000401E44EA0060DC6804F070442043D8602B
:10224000002030BDFF0F0FFF18B5024600200090A0
:1022500000BF92F83C00012801D1022018BD0120E6
:1022600082F83C0000BF0868092826D90868B0F148
:10227000004F22D01068C0680B780A3B03EB430480
:102280000723A34098431368D860674B08689842B7
:1022900007D11068C0680B7A40EA03601368D86001
:1022A0001FE00B780A3B03EB4303886898401368F0
:1022B000DB6818431368D86013E0106800690B7876
:1022C00003EB43040723A3409843136818610B787A
:1022D00003EB43038868984013681B69184313682D
:1022E00018614868072817D21068406B0B795B1E8D
:1022F00003EB83041F23A3409843136858630888A3
:1023000080B20B795B1E03EB8303984013685B6B11
:1023100018431368586331E048680D2817D21068D5
:10232000006B0B79DB1F03EB83041F23A34098434F
:1023300013681863088880B20B79DB1F03EB8303F3
:10234000984013681B6B18431368186316E01068F5
:10235000C06A0B790D3B03EB83041F23A340984312
:102360001368D862088880B20B790D3B03EB8303B6
:1023700098401368DB6A18431368D8622B4B1068C7
:10238000984209D10868B0F1004F05D1284800688B
:1023900020F44000C3F80403244B106898420FD186
:1023A000086812280CD12248006820F40000C3F805
:1023B00004031846D0F8040340F48000C3F8040373
:1023C0001A4B1068984228D1174B0868984202D0DF
:1023D0000868112821D11648006820F48000134BAA
:1023E000C3F804031846D0F8040340F40000104B6F
:1023F00018600D4B086898420FD10E4800680E4BCC
:10240000B0FBF3F000EB80004000009002E0009889
:10241000401E009000980028F9D100BF002082F8EB
:102420003C0000BF00BF19E712000010002001406F
:1024300004230140A075002040420F0070B50446FF
:1024400000250CB9012070BD1549A06A884200D052
:1024500000BF206C30B9204600F024F800206064F2
:1024600084F83C00206C00F0100088B9206C20F447
:10247000885040F0020020642046FEF73FFA00201A
:102480006064206C20F0020040F00100206400E055
:10249000012500BF002084F83C0000BF2846D2E799
:1024A0000100000F10B586B00446142101A8FDF705
:1024B000F3FE2349206888423FD100BF21480068CD
:1024C00040F480601F4908600846006800F480609E
:1024D000009000BF00BF00BF1A481438006840F0E9
:1024E00020001849143908600846006800F02000F0
:1024F000009000BF00BF00BF0846006840F0010028
:1025000008600846006800F00100009000BF00BFAE
:102510004FF4F8600190032002900020039001A97D
:10252000094802F02BF801200190032002900020BE
:10253000039001A9054802F021F806B010BD000083
:1025400000220140443802400014024000000240D2
:1025500070B503460C4600201F2100BF0D1EA1F1DF
:10256000010106D001F01F060125B5402540002DD0
:10257000F4D08AB1082A0BD0102A05D0182A0CD121
:10258000072900D301200AE0082900D3012006E032
:10259000102900D3012002E001E0012000BF00BFAC
:1025A00040B91D686C611D68AD6825F018051543BC
:1025B0001E68B56070BD000010B504460CB901205E
:1025C00010BD607F20B900202077204600F036F84B
:1025D00002206077207948B917482168486120684F
:1025E000806820F018002168886007E02046D4E960
:1025F0000212FFF7ADFF08B10120E1E7607920B9D1
:102600004FF0FF302168086102E02168206908610D
:102610002068806820F06000616908432168886054
:102620002068806820F08000A169084321688860E4
:10263000012060770020C3E7B71DC10408B5094A2F
:10264000016891420DD100BF0749096841F48051EA
:10265000054A11601146096801F48051009100BFDC
:1026600000BF08BD003002403038024070B504465B
:10267000049D00BF94F83400012801D1022070BDF0
:10268000012084F8340000BF022084F8350043EABA
:1026900005402668706241EA0240266830620120E7
:1026A00084F8350000BF002084F8340000BF00BF6C
:1026B000E5E7014600BF91F83400012801D102206E
:1026C0007047012081F8340000BF022081F83500F6
:1026D0000868006820F004000A681060012081F892
:1026E000350000BF002081F8340000BF00BFE7E7DD
:1026F000014600BF91F83400012801D10220704743
:10270000012081F8340000BF022081F835000868FC
:10271000006840F004000A681060012081F835006C
:1027200000BF002081F8340000BF00BFE7E710B50C
:102730000446FEF79FFA10BD10B50446FEF79BFA5B
:1027400010BD000070B504462068056905F004005E
:1027500004280ED121684861E06C40F00200E0647A
:10276000042084F835002548A16C0865A06C01F0B0
:1027700077FB05F00200022812D121684861E06C65
:1027800040F00100E064042084F835001B48A16C8F
:102790000865A06C01F064FB10B1A06CFFF748FA6B
:1027A00005F01000102804D121684861204600F08F
:1027B00077F805F00800082804D121684861204610
:1027C00000F0D4F905F00100B8B12068006800F00D
:1027D0000200022805D12068C06820F01E00216890
:1027E000C8602068C06820F001002168C86001202E
:1027F000216848612046FFF79FFF70BD311C00082B
:1028000010B504460CB9012010BD94F8350010B97C
:10281000204600F04BF8022084F83500A06908B18A
:1028200000216162206800681C4908402168086036
:10283000616960680843E168084321690843A16849
:102840000843A1690843216A0843616A0843A16AF1
:102850000843E16A0843216B08432168096808437B
:1028600021680860606810280BD1217F607F41EAF1
:102870000021A07F41EA0041E07F41EA0060216839
:1028800088612068C06840F01E002168C860002090
:10289000E064012084F835000020B5E707F0E0FF90
:1028A00010B50446FEF744FA10BD000010B586B01E
:1028B0000446142101A8FDF7EFFC65492068884211
:1028C0007ED100BF6348006840F0010061490860A4
:1028D0000846006800F00100009000BF00BF00BF84
:1028E000081F006840F01000091F086008460068D3
:1028F00000F01000009000BF00BF00BF0846006855
:1029000040F0080008600846006800F008000090E9
:1029100000BF00BF00BF0846006840F040000860EC
:102920000846006800F04000009000BF00BF00BFF4
:102930000846006840F0800008600846006800F023
:102940008000009000BF00BF00BF0846006840F054
:10295000010008600846006800F00100009000BF18
:1029600000BF60200190022002900020039004909C
:102970000D20059001A9384801F000FE08200190C3
:10298000022002900020039004900D20059001A9E0
:10299000324801F0F3FD4FF40070019002200290E4
:1029A0000020039004900D20059001A92C4801F00F
:1029B000E5FD4FF4BC40019002200290002000E0B1
:1029C00044E0039004900D20059001A9254801F0F2
:1029D000D5FD502001900220029000200390049029
:1029E0000D20059001A9204801F0C8FD1F4820498D
:1029F00008604FF00070486000211D488160C16090
:102A00004FF4806101618900416189008161891110
:102A1000C1614902016204214162032181624FF4D4
:102A20000001C1620021016301F086FB08B1FFF7DC
:102A30006BFB00BF0E48A064846300BF00221146F8
:102A40004E2002F0E1FC4E2002F0CEFC06B010BD9C
:102A5000000005503438024000100240000C0240D3
:102A600000180240001C024000000240286402409E
:102A7000186C03202DE9F84304460F4615461E4600
:102A80004FF0000800BF94F83400012802D1022062
:102A9000BDE8F883012084F8340000BF022084F8E8
:102AA00035002068006840F4804021680860206894
:102AB000006820F002002168086020680068384340
:102AC000216808602748A16CC8632748A16CC864C6
:102AD0000020A16C0865A0632064E0636064B6F523
:102AE000803F0AD2226802F1280133462A46A06CB0
:102AF00001F098FB48B30120CAE71A48A16C48646A
:102B00000120A063E663656405E0E06B4008E063D4
:102B1000A06B4000A063E06BB0F5803FF5D2A06BE6
:102B2000801EA063A06B2064E06B042101FB0058B1
:102B3000E06B0090226802F1280143462A46A06C0F
:102B400000F0ACF908B10120A2E72068006840F06D
:102B500001002168086000BF002084F8340000BF35
:102B600000BF95E7551C0008311C000810B504464D
:102B7000FEF7FCF910BD000070B502460C46506827
:102B8000B0F5403F02D0506800B100BF00BF92F8DE
:102B90003800012801D1022070BD012082F83800E0
:102BA00000BF022082F8390002F1180000EB041186
:102BB0000E89486840EA0643214D48680A2802D039
:102BC0004868092804D1C86800F07F40034302E048
:102BD000087B43EA0063A4B91068406AA84318431D
:102BE0001668706208681668B06148680A2802D0E2
:102BF0004868092819D1C86820F07F401668B0627B
:102C000013E01068C069A84318431668F0610868AB
:102C10001668306148680A2802D04868092804D13B
:102C2000C86820F07F4016683062012082F83900C1
:102C300000BF002082F8380000BF00BFACE70000F2
:102C40000F0003FF10B504460CB9012010BD94F825
:102C5000390028B9002084F83800204600F022F816
:102C6000022084F839002068006820F44030616850
:102C70000843216808602068406B20F00700A168C5
:102C80000843216848632068006C6FF30D00E16819
:102C90000843216808640020E063012084F83900BB
:102CA0000020D3E708B5094A016891420DD100BF61
:102CB0000749096841F40001054A11601146096895
:102CC00001F40001009100BF00BF08BD00B0024048
:102CD00030380240F8B504460D46002000902068C8
:102CE000006800F00100002843D001F053FD0646C3
:102CF00039E0206840680090009800F02100E0B1C1
:102D0000009800F0200018B1E06B40F00200E06392
:102D1000009800F0010018B1E06B40F00100E063A2
:102D2000212021688860042084F8390000BF002039
:102D300084F8380000BF0120F8BD681C98B101F08C
:102D400029FD801BA84200D86DB9E06B40F020003F
:102D5000E063032084F8390000BF002084F83800C5
:102D600000BF0320E8E72068406800F00200002868
:102D7000BFD02068C06900F020072068406A00F0DA
:102D800020000743002F4BD001F004FD064641E030
:102D9000206840680090009800F0290020B3009857
:102DA00000F0080018B1E06B40F00400E063009808
:102DB00000F0200018B1E06B40F00200E0630098E2
:102DC00000F0010018B1E06B40F00100E063292041
:102DD00021688860042084F8390000BF002084F84E
:102DE000380000BF0120A7E7681C98B101F0D2FCB1
:102DF000801BA84200D86DB9E06B40F02000E06372
:102E0000032084F8390000BF002084F8380000BF98
:102E1000032091E72068406800F010000028B7D038
:102E2000122021688860012084F8390000BF00204A
:102E300084F8380000BF00BF7EE72DE9F843044660
:102E40000D4616461F46DDF8208000BF94F8380076
:102E5000012802D10220BDE8F883012084F838005F
:102E600000BF022084F839003B46324629462046FE
:102E7000CDF80080FEF7B4FF2068006840F0010044
:102E8000216808600020E6E7034612B91868C160AF
:102E900001E0186801610020704700002DE9F0474B
:102EA00004460E4617461D46DDF820804FF0000907
:102EB000A068802804D1400060650120BDE8F0874B
:102EC00000BF94F83400012801D10220F6E7012068
:102ED00084F8340000BF94F83500012873D1022033
:102EE00084F83500002060652068006840F4802088
:102EF000216808602068056143463A46314620460D
:102F0000FFF759F8FA49206888425DD9F9492068E5
:102F1000884201D1202052E0F54948392068884292
:102F200001D120204BE0F34960312068884201D173
:102F3000202044E0EE4918312068884201D1202049
:102F40003DE0EC4918312068884201D1C01436E0D8
:102F5000E74930392068884201D1C0142FE0E549A3
:102F600078312068884201D1C01428E0E04930312E
:102F70002068884201D1C01421E0DE493031206848
:102F8000884202D14FF4001019E0D949183920685D
:102F9000884202D14FF4001011E0D64990312068E8
:102FA000884202D14FF4001009E0D149483120682D
:102FB000884202D14FF4001001E04FF00060CC498C
:102FC0004C39086020E1EFE3CA49A8312068884203
:102FD0005CD9C8492068884201D1202052E0C44908
:102FE00048392068884201D120204BE0C149603136
:102FF0002068884201D1202044E0BD491831206872
:10300000884201D120203DE0BA4918312068884229
:1030100001D1C01436E0B64930392068884201D168
:10302000C0142FE0B34978312068884201D1C01420
:1030300028E0AF4930312068884201D1C01421E036
:10304000AC4930312068884202D14FF4001019E0B9
:10305000A74918392068884202D14FF4001011E0C6
:10306000A44990312068884202D14FF4001009E051
:103070009F4948312068884202D14FF4001001E096
:103080004FF000609A4950390860BDE099494831D5
:10309000206888425CD997492068884201D1202065
:1030A00052E0934948392068884201D120204BE002
:1030B000904960312068884201D1202044E08C4949
:1030C00018312068884201D120203DE0894918311B
:1030D0002068884201D1C01436E085493039206823
:1030E000884201D1C0142FE082497831206888429B
:1030F00001D1C01428E07E4930312068884201D1D6
:10310000C01421E07B4930312068884202D14FF45D
:10311000001019E0764918392068884202D14FF42E
:10312000001011E0734990312068884202D14FF4B9
:10313000001009E06E4948312068884202D14FF4FE
:10314000001001E04FF000606A491039C8605BE090
:1031500068492068884201D1202052E064494839FA
:103160002068884201D120204BE06249603120680C
:10317000884201D1202044E05D491831206888420E
:1031800001D120203DE05B4918312068884201D1FF
:10319000C01436E0564930392068884201D1C01445
:1031A0002FE0544978312068884201D1C01428E0CA
:1031B0004F4930312068884201D1C01421E04D4987
:1031C00030312068884202D14FF4001019E048499C
:1031D00018392068884202D14FF4001011E04549A7
:1031E00090312068884202D14FF4001009E0404934
:1031F00048312068884202D14FF4001001E04FF0BE
:1032000000603C49103988603949206888425CD99F
:1032100038492068884201D1102052E034494839A9
:103220002068884201D110204BE03249603120688B
:10323000884201D1102044E02D491831206888428D
:1032400001D110203DE02B4918312068884201D17E
:10325000001536E0264930392068884201D1001532
:103260002FE0244978312068884201D1001528E0F8
:103270001F4930312068884201D1001521E01D49E5
:1032800030312068884202D14FF4801019E018498B
:1032900018392068884202D14FF4801011E0154996
:1032A00090312068884202D14FF4801009E0104923
:1032B00048312068884202D14FF4801001E04FF07D
:1032C00080600B494C39086020E10A49A831206828
:1032D00088425FD907492068884201D1102055E013
:1032E000034948392068884206D110204EE000008A
:1032F0005864024010600240F8492068884201D1B9
:10330000102043E0F6492068884201D110203DE0BA
:10331000F24948392068884201D1001536E0F04969
:1033200048392068884201D100152FE0EB49183157
:103330002068884201D1001528E0E9491831206849
:10334000884201D1001521E0E449303920688842E3
:1033500002D14FF4801019E0E149303920688842E9
:1033600002D14FF4801011E0DC49303120688842EE
:1033700002D14FF4801009E0D949303120688842E9
:1033800002D14FF4801001E04FF08060D4496839D9
:103390000860BBE0D1491839206888425BD9CF4921
:1033A00060392068884201D1102050E0CC49603952
:1033B0002068884201D1102049E0C849206888422D
:1033C00001D1102043E0C6492068884201D1102075
:1033D0003DE0C24948392068884201D1001536E0F5
:1033E000BF4948392068884201D100152FE0BB4908
:1033F00018312068884201D1001528E0B8491831F9
:103400002068884201D1001521E0B4493039206894
:10341000884202D14FF4801019E0B1493039206858
:10342000884202D14FF4801011E0AC49303120685D
:10343000884202D14FF4801009E0A9493031206858
:10344000884202D14FF4801001E04FF08060A34920
:103450007039C8605AE0A14960392068884201D1BA
:10346000102050E09E4960392068884201D1102028
:1034700049E09A492068884201D1102043E09849E8
:103480002068884201D110203DE0944948392068E5
:10349000884201D1001536E09149483920688842B8
:1034A00001D100152FE08D4918312068884201D1E3
:1034B000001528E08A4918312068884201D100159A
:1034C00021E0864930392068884202D14FF48010CB
:1034D00019E0834930392068884202D14FF48010C6
:1034E00011E07E4930312068884202D14FF48010CB
:1034F00009E07B4930312068884202D14FF48010C6
:1035000001E04FF08060754970398860744918395E
:10351000206888425BD9714960392068884201D1AE
:10352000082050E06E4960392068884201D10820A7
:1035300049E06A492068884201D1082043E068498F
:103540002068884201D108203DE06449483920685C
:10355000884201D1401536E06149483920688842E7
:1035600001D140152FE05D4918312068884201D112
:10357000401528E05A4918312068884201D1401589
:1035800021E0564930392068884202D14FF40020AA
:1035900019E0534930392068884202D14FF40020A5
:1035A00011E04E4930312068884202D14FF40020AA
:1035B00009E04B4930312068884202D14FF40020A5
:1035C00001E04FF000704649643908601FE143494B
:1035D0004831206888425BD9404960392068884278
:1035E00001D1082050E03E4960392068884201D16D
:1035F000082049E039492068884201D1082043E089
:1036000037492068884201D108203DE033494839D4
:103610002068884201D1401536E031494839206898
:10362000884201D140152FE02C491831206888428A
:1036300001D1401528E02A4918312068884201D17B
:10364000401521E0254930392068884202D14FF4E5
:10365000002019E0224930392068884202D14FF415
:10366000002011E01D4930312068884202D14FF41A
:10367000002009E01A4930312068884202D14FF415
:10368000002001E04FF00070154968390860BEE085
:1036900012491839206888425DD91049603920687C
:1036A000884201D1082052E00D49603920688842E3
:1036B00001D108204BE009492068884201D1082047
:1036C00045E007492068884201D108203FE00349CE
:1036D00048392068884205D1401538E070600240C2
:1036E00070640240FA492068884201D140152EE0FA
:1036F000F8492068884201D1401528E0F44960313A
:103700002068884201D1401521E0F24948392068FB
:10371000884202D14FF4002019E0ED4918312068A9
:10372000884202D14FF4002011E0EA4918312068A4
:10373000884202D14FF4002009E0E5497831206841
:10374000884202D14FF4002001E04FF00070E149BF
:103750008839C8605BE0DF4978392068884201D148
:10376000082051E0DA4918392068884201D1082040
:103770004AE0D84918392068884201D1082043E03E
:10378000D34948312068884201D108203CE0D14922
:1037900060392068884201D1401535E0CC49206865
:1037A000884202D140152FE04CE3CA492068884284
:1037B00001D1401528E0C64960312068884201D116
:1037C000401521E0C34948392068884202D14FF4AE
:1037D000002019E0BE4918312068884202D14FF418
:1037E000002011E0BB4918312068884202D14FF413
:1037F000002009E0B64978312068884202D14FF4B0
:10380000002001E04FF00070B24988398860B0496B
:103810003031206888425BD9AE49783920688842C7
:1038200001D1042050E0AA4918392068884201D10A
:10383000042049E0A74918392068884201D10420B2
:1038400042E0A34948312068884201D104203BE08E
:10385000A04960392068884201D1801534E09C4934
:103860002068884201D180152EE09A49206888425C
:1038700001D1801528E0964960312068884201D145
:10388000801521E0934948392068884202D14FF4DD
:10389000802019E08E4918312068884202D14FF407
:1038A000802011E08B4918312068884202D14FF402
:1038B000802009E0864978312068884202D14FF49F
:1038C000802001E04FF0807081491C3908601EE1C2
:1038D00080493031206888425BD97E497839206838
:1038E000884201D1042050E0794918392068884283
:1038F00001D1042049E0774918392068884201D174
:10390000042042E0724948312068884201D10420F5
:103910003BE0704960392068884201D1801534E06D
:103920006B492068884201D180152EE069492068E2
:10393000884201D1801528E06549603120688842BD
:1039400001D1801521E0634948392068884202D1BD
:103950004FF4802019E05E4918312068884202D176
:103960004FF4802011E05B4918312068884202D171
:103970004FF4802009E0564978312068884202D10E
:103980004FF4802001E04FF08070514920390860E9
:10399000BDE050493039206888425BD94D497839BB
:1039A0002068884201D1042050E049491839206834
:1039B000884201D1042049E04649183920688842EC
:1039C00001D1042042E0424948312068884201D1B7
:1039D00004203BE03F4960392068884201D18015CE
:1039E00034E03B492068884201D180152EE03949F6
:1039F0002068884201D1801528E03549603120686F
:103A0000884201D1801521E0324948392068884236
:103A100002D14FF4802019E02D49183120688842E6
:103A200002D14FF4802011E02A49183120688842E1
:103A300002D14FF4802009E025497831206888427E
:103A400002D14FF4802001E04FF080702149883985
:103A5000C8605CE01F4978392068884201D10420A1
:103A600052E01B4918392068884201D104204BE0FC
:103A7000184918392068884201D1042044E01449CB
:103A800048312068884201D104203DE01149603965
:103A90002068884201D1801536E00D4920688842AF
:103AA00001D1801530E00B492068884201D1801592
:103AB0002AE0074960312068884201D1801523E05F
:103AC000044948392068884206D14FF480201BE021
:103AD0002864024088600240DF492068884202D1A1
:103AE0004FF4802010E0DD492068884202D14FF475
:103AF000802009E0D84960312068884202D14FF423
:103B0000802001E04FF08070D449A0398860D2490C
:103B10001831206888425BD9D049903920688842A2
:103B200001D1012050E0CC4930392068884201D1D0
:103B3000012049E0C94930392068884201D101207B
:103B400042E0C54930312068884201D101203BE084
:103B5000C24978392068884201D1402034E0BE490A
:103B600018392068884201D140202DE0BB4918391E
:103B70002068884201D1402026E0B74948312068BA
:103B8000884201D140201FE0B44960392068884252
:103B900002D14FF4803017E0AF492068884202D14B
:103BA0004FF4803010E0AD492068884202D14FF4D4
:103BB000803009E0A84960312068884202D14FF482
:103BC000803001E04FF48000A349343908601CE1E3
:103BD000A2491831206888425BD9A04990392068F1
:103BE000884201D1012050E09B4930392068884249
:103BF00001D1012049E0994930392068884201D13A
:103C0000012042E0944930312068884201D10120EE
:103C10003BE0924978392068884201D1402034E065
:103C20008D4918392068884201D140202DE08B4908
:103C300018392068884201D1402026E08649483161
:103C40002068884201D140201FE084496039206803
:103C5000884202D14FF4803017E07F4920688842C3
:103C600002D14FF4803010E07C492068884202D1B4
:103C70004FF4803009E0784960312068884202D1F1
:103C80004FF4803001E04FF4800073493839086008
:103C9000BBE072494839206888425BD96F49903946
:103CA0002068884201D1012050E06B4930392068FA
:103CB000884201D1012049E06849303920688842B2
:103CC00001D1012042E0644930312068884201D1AD
:103CD00001203BE0614978392068884201D14020C9
:103CE00034E05D4918392068884201D140202DE038
:103CF0005A4918392068884201D1402026E05649A7
:103D000048312068884201D140201FE05349603982
:103D10002068884202D14FF4803017E04E49206875
:103D2000884202D14FF4803010E04C49206888422C
:103D300002D14FF4803009E0474960312068884261
:103D400002D14FF4803001E04FF480004349A039A4
:103D5000C8605AE0414990392068884201D1012069
:103D600050E03D4930392068884201D1012049E0C6
:103D70003A4930392068884201D1012042E0364971
:103D800030312068884201D101203BE03349783945
:103D90002068884201D1402034E02F49183920683A
:103DA000884201D140202DE02C49183920688842F2
:103DB00001D1402026E0284948312068884201D1BD
:103DC00040201FE0254960392068884202D14FF425
:103DD000803017E020492068884202D14FF48030BB
:103DE00010E01E492068884202D14FF4803009E07B
:103DF000194960312068884202D14FF4803001E0D7
:103E00004FF480001549A03988602068006840F0B0
:103E10001600216808602068406940F08000216831
:103E20004861206C08B9A06C28B12068006840F097
:103E30000800216808602068006840F001002168DF
:103E4000086006E000BF002084F8340000BF4FF097
:103E500002094846FFF732B840640240A0600240C1
:103E6000014691F83500022803D0802048650120E2
:103E70007047052081F835000868006820F00100CF
:103E80000A6810600020F3E770B504460CB9012001
:103E900070BD94F83500022800D1F9E72068006869
:103EA00020F0010021680860002021680860216876
:103EB0004860216888602168C86021680861212005
:103EC000216848612046FEF707F8054694F85C1023
:103ED0003F208840A8600020E06320646064A06404
:103EE000E0642065606584F8350000BF84F8340024
:103EF00000BF00BFCCE70000F8B5044600200090EA
:103F00008C4800684FF41651B0FBF1F7A56D2E6890
:103F100094F85C1008208840304098B12068006810
:103F200000F0040070B12068006820F004002168EF
:103F3000086094F85C1008208840A860606D40F02C
:103F40000100606594F85C1001208840304068B141
:103F50002068406900F0800040B194F85C100120B6
:103F60008840A860606D40F00200606594F85C10C5
:103F700004208840304068B12068006800F00200EA
:103F800040B194F85C1004208840A860606D40F057
:103F90000400606594F85C1010208840304078B3CD
:103FA0002068006800F0080050B394F85C101020FE
:103FB0008840A8602068006800F4802080B12068F4
:103FC000006800F4002028B9206CC8B12046216C9C
:103FD000884715E0A06C98B12046A16C88470FE097
:103FE0002068006800F4807028B92068006820F01C
:103FF000080021680860206C10B12046216C8847B9
:1040000094F85C10202088403040002865D020685B
:10401000006800F0100000285FD094F85C102020A9
:104020008840A86094F83500052828D120680068E9
:1040300020F01600216808602068406920F08000A8
:1040400021684861206C08B9A06C28B1206800681C
:1040500020F008002168086094F85C103F20884038
:10406000A860012084F8350000BF002084F83400E7
:1040700000BF206D10B12046216D8847F8BD206833
:10408000006800F4802080B12068006800F40020FF
:1040900028B9606C10B12046616C88471DE0E06B68
:1040A000D8B12046E16B884717E02068006800F42B
:1040B000807068B92068006820F0100021680860EE
:1040C000012084F8350000BF002084F8340000BFD0
:1040D000E06B10B12046E16B8847606D38B3606DCE
:1040E00000F00100F0B1052084F835002068006878
:1040F00020F001002168086000BF0098401C00907B
:10410000B84200D905E02068006800F001000028EE
:10411000F3D100BF012084F8350000BF002084F8EF
:10412000340000BFE06C10B12046E16C884700BF4E
:10413000A4E70000A07500202DE9F0410446002509
:1041400000F028FB074614B90120BDE8F081606A41
:1041500000B100BF022084F8350000BF002084F8C1
:10416000340000BF2068006820F00100216808606A
:104170000AE000F00FFBC01B052805D92020606570
:10418000032084F83500E0E72068006800F00100B3
:104190000028EED12068056821480540D4E90101D6
:1041A0000843E16808432169084361690843A1693C
:1041B0000843E1690843216A08430543606A04280B
:1041C00003D1D4E90B01084305432068056020684A
:1041D000456925F00705606A0543606A04280DD12A
:1041E000A06A0543E06A48B12046FDF78FFE28B17A
:1041F00040206065012084F83500A6E7206845610D
:104200002046FDF769FE064694F85C103F20884082
:10421000B06000206065012084F83500002094E73C
:104220003F8010F02DE9F04704460D4616461F4624
:104230004FF00008D4F8589000BF94F834000128DB
:1042400002D10220BDE8F087012084F8340000BFCD
:1042500094F8350001282BD1022084F83500002085
:1042600060653B46324629462046FDF7B4FE94F889
:104270005C103F208840C9F808002068006840F0C2
:104280001600216808602068406940F080002168BD
:104290004861206C28B12068006840F0080021685F
:1042A00008602068006840F001002168086006E0AE
:1042B00000BF002084F8340000BF4FF002084046E1
:1042C000C0E7000070B5044600F064FA06462546D3
:1042D000681C10B104480078054400BF00F05AFA89
:1042E000801BA842FAD370BD9C75002000B587B032
:1042F000142102A8FBF7D0FF3748006808B107B0C7
:1043000000BD01203449086000BF3448006840F017
:104310000100324908600846006800F00100019081
:1043200000BF00BF4FF68370029002200390002070
:104330000490032005900C20069002A9284800F064
:104340001DF948F2331002900220039000200490DF
:10435000032005900C20069002A9224800F00EF9D7
:104360004CF203700290022003900020049003207E
:1043700005900C20069002A91B4800F0FFF84FF6AC
:104380003F0002900220039000200490032005903B
:104390000C20069002A9154800F0F0F828200290A1
:1043A0000220039000200490032005900C2006902A
:1043B00002A90F4800F0E2F80820029002200390C2
:1043C00000200490032005900C20069002A90948C3
:1043D00000F0D4F800BF92E78C7500203838024016
:1043E0000010024000180240000C0240001402407D
:1043F000001C024000080240F0B50C4600250022D7
:10440000002300219EE0012606FA01F504EA0502D8
:10441000AA427CD14D4E8F0856F827308E07370FB1
:104420000F26BE4033404A4EB04201D100262DE057
:10443000484EB04201D1012628E0474EB04201D19A
:10444000022623E0454EB04201D103261EE0444E31
:10445000B04201D1042619E0424EB04201D10526F6
:1044600014E0414EB04201D106260FE03F4EB0426B
:1044700001D107260AE03E4EB04201D1082605E0F0
:104480003C4EB04201D1092600E00A268F073F0FBB
:10449000BE409E4224D1384E36689643364F3E6029
:1044A0003E1D366896433F1D3E60334E0C363668DF
:1044B0009643314F0C373E603E1F366896433F1F90
:1044C0003E608E07370F0F2606FA07F31F4E8F0840
:1044D00056F827609E431D4F4FEA910C47F82C6019
:1044E00006684FEA410C032707FA0CF7BE43066043
:1044F000CF0800F1200656F827604F074FEAD76C27
:104500000F2707FA0CF7BE434FEAD10C00E018E082
:1045100000F1200747F82C60C6684FEA410C0327DA
:1045200007FA0CF7BE43C660476801268E40B743C2
:10453000476086684FEA410C032707FA0CF7BE4331
:104540008660491C1029FFF45EAFF0BD08380140B9
:10455000000002400004024000080240000C02403B
:10456000001002400014024000180240001C0240EB
:104570000020024000240240003C0140F8B5024601
:104580000B46002100250024002000BFDEE00126AC
:1045900006FA01F51E6806EA0504AC4272D11E79DE
:1045A00006F00306012E04D01E7906F00306022E43
:1045B00013D190684F000326BE40B0434F00DE6821
:1045C000BE4030439060506801268E40B0431E7953
:1045D000C6F300168E40304350601E7906F0030685
:1045E000032E09D0D0684F000326BE40B0434F00D1
:1045F0009E68BE403043D0601E7906F00306022E4E
:1046000013D1CF0802F1200656F827004E07F70E07
:104610000F26BE40B0434F07FF0E1E69BE40304319
:10462000CF0802F1200646F8270010684F00032645
:10463000BE40B0431E7906F003064F00BE40304333
:1046400010605E6806F44036002E7ED000BF414EFA
:10465000366846F480463F4F3E603E46366806F474
:104660008046009600BF00BF3B4E8F0856F82700DB
:104670008E07370F0F26BE40B043384EB24202D1EC
:1046800000262EE061E0364EB24201D1012628E03C
:10469000344EB24201D1022623E0334EB24201D160
:1046A00003261EE0314EB24201D1042619E0304EFD
:1046B000B24201D1052614E02E4EB24201D10626A7
:1046C0000FE02D4EB24201D107260AE02B4EB24236
:1046D00001D1082605E02A4EB24201D1092600E0A8
:1046E0000A268F073F0FBE4030431B4E8F0846F807
:1046F0002700244E3068A0435E6806F4801606B199
:104700002043204E3060361D3068A0435E6806F4BA
:10471000001606B120431B4E361D3060194E361F61
:104720003068A0435E6806F4003606B12043154E9B
:10473000361F3060361F3068A0435E6806F480364E
:1047400006B120430F4E083E3060491C1029FFF48B
:104750001EAFF8BD44380240083801400000024056
:104760000004024000080240000C02400010024019
:104770000014024000180240001C024000200240C9
:1047800000240240083C01400AB1816101E00B04B1
:1047900083617047014800687047000094750020ED
:1047A000024692F8410020282DD100BF92F8400027
:1047B000012801D102207047012082F8400000BF8B
:1047C000242082F841001068006820F0010013687E
:1047D00018601068006820F4805013681860106832
:1047E00000680843136818601068006840F0010012
:1047F00013681860202082F8410000BF002082F872
:10480000400000BFD7E70220D5E710B502460B46AF
:1048100092F8410020282AD100BF92F840000128D8
:1048200001D1022010BD012082F8400000BF2420E9
:1048300082F841001068006820F0010014682060D0
:104840001068016821F4706141EA03211068016079
:104850001068006840F0010014682060202082F891
:10486000410000BF002082F8400000BFDAE70220CC
:10487000D8E710B504460CB9012010BD242084F8F7
:1048800041002068006820F001002168086020468F
:1048900000F010FA0020606484F84100206384F87E
:1048A000420000BF84F8400000BF00BFE5E70146BA
:1048B00091F841007047000010B504460CB9012082
:1048C00010BD94F8410028B9002084F8400020462B
:1048D00000F024FA242084F841002068006820F0C9
:1048E000010021680860606820F07060216808613C
:1048F0002068806820F4004021688860E068012812
:1049000005D1A06840F400402168886004E0A068F8
:1049100040F4044021688860E068022802D18002E7
:10492000216848602068406813490843216848604E
:104930002068C06820F400402168C860D4E9040100
:104940000843A16940EA01202168C860D4E9070151
:104950000843216808602068006840F00100216871
:10496000086000206064202084F84100002020635B
:1049700084F8420000BFA3E7008000022DE9FC5F3D
:104980000446894692469B46DDE90C780E9E94F8D3
:10499000410020287ED117B1B8F1000F05D14FF4A6
:1049A000007060640120BDE8FC9F00BF94F84000E7
:1049B000012801D10220F6E7012084F8400000BF61
:1049C000FFF7E8FE054619230122D1032046009592
:1049D00002F046FF08B10120E5E7222084F84100FB
:1049E000402084F84200002060646762A4F82A80B6
:1049F00060635B46524649462046CDE9006502F0B9
:104A000097FE30B100BF002084F8400000BF0120B5
:104A1000C9E7608DFF280CD9FF2020853D48009014
:104A200094F828204FF080734946204602F0FCFE9F
:104A30000BE0608D20853748009094F828204FF0D7
:104A400000734946204602F0EFFE00BF33460022C5
:104A500004212046009502F003FF08B10120A2E7DF
:104A60002068406A616A0870606A401C6062208D3C
:104A7000401E2085608D401E6085608D48B3208D6E
:104A800038BB3346002280212046009502F0E8FE24
:104A900018B100E03CE0012085E7608DFF280CD9CB
:104AA000FF2020850020009094F828204FF080738C
:104AB0004946204602F0B8FE0BE0608D20850020BC
:104AC000009094F828204FF000734946204602F0E9
:104AD000ABFE608D0028B9D12A463146204602F04F
:104AE000EEFE08B101205EE720202168C861206841
:104AF00040680949084021684860202084F8410046
:104B0000002084F8420000BF84F8400000BF4AE75C
:104B1000022048E70024008000E800FE2DE9FC5F49
:104B20000446894692469B46DDE90C780E9E94F831
:104B3000410020287DD117B1B8F1000F05D14FF405
:104B4000007060640120BDE8FC9F00BF94F8400045
:104B5000012801D10220F6E7012084F8400000BFBF
:104B6000FFF718FE054619230122D10320460095C0
:104B700002F076FE08B10120E5E7212084F841002B
:104B8000402084F84200002060646762A4F82A8014
:104B900060635B46524649462046CDE9006502F017
:104BA00005FE30B100BF002084F8400000BF0120A6
:104BB000C9E7608DFF280CD9FF20208500200090D8
:104BC00094F828204FF080734946204602F02CFECE
:104BD0000BE0608D20850020009094F828204FF095
:104BE00000734946204602F01FFE00BF2A463146A8
:104BF000204602F08FFE08B10120A4E7606A007829
:104C000021688862606A401C6062608D401E608519
:104C1000208D401E2085608D40B3208D30BB3346F3
:104C2000002280212046009502F01AFE10B10120DA
:104C300089E73AE0608DFF280CD9FF20208500200D
:104C4000009094F828204FF080734946204602F0E7
:104C5000EBFD0BE0608D20850020009094F828206B
:104C60004FF000734946204602F0DEFD608D0028BB
:104C7000BCD12A463146204602F021FE08B101206F
:104C800061E720202168C861206840680849084021
:104C900021684860202084F84100002084F8420008
:104CA00000BF84F8400000BF4DE702204BE7000042
:104CB00000E800FE10B504461349206888420FD171
:104CC0001248006820F40010104908608915104847
:104CD000FFF792FB4FF400710D48FFF78DFB12E0D8
:104CE0000C49206888420ED10848006820F4000072
:104CF0000649086080210848FFF77EFB4FF4807169
:104D00000548FFF779FB10BD0054004040380240D1
:104D100000040240005C0040001C024010B5A8B036
:104D20000446142123A8FBF7B7FA842102A8FBF755
:104D3000B3FA3C492068884236D100140290002022
:104D40001B9002A800F004FC08B1FDF7DDF900BFDC
:104D50003548006840F002003349086008460068A2
:104D600000F00200019000BF00BF4FF4407023909C
:104D700012202490012025900020269004202790C6
:104D800023A92A48FFF7FAFB00BF27481030006824
:104D900040F400102449103108600846006800F40F
:104DA0000010019000BF3BE021492068884237D1C4
:104DB0004FF48030029000201D9002A800F0C8FB44
:104DC00008B1FDF7A1F900BF1748006840F0800066
:104DD000154908600846006800F08000019000BF97
:104DE00000BF4FF4C0702390122024900120259022
:104DF000032026900420279023A90E48FFF7BEFB2E
:104E000000BF09481030006840F400000649103126
:104E100008600846006800F40000019000BF00BF71
:104E200028B010BD00540040303802400004024059
:104E3000005C0040001C02400348006803490978F8
:104E40000844014908607047947500209C75002053
:104E500010B5032000F016FB0F2000F005F800F05D
:104E6000A3FA002010BD00002DE9F04188B00446EF
:104E70000027B84600BF2348006840F010002149D1
:104E800008600846006800F01000019000BF00BFF5
:104E900002A903A800F098FF069F1FB900F0BCFF0D
:104EA000054602E000F0B8FF45001748B5FBF0F0FA
:104EB000A0F1010815481649086040F2E73114488E
:104EC000C160C0F80480002101618160816101F04E
:104ED0005DFE064696B90E4801F0E8FE06466EB93C
:104EE000362000F081FA102C07D20022214636200D
:104EF00000F08AFA0748046000E00126304608B056
:104F0000BDE8F0814038024040420F0000100040F0
:104F1000007103209875002070B504460E461546B2
:104F200000BF94F8A000012801D1022070BD01202B
:104F300084F8A00000BF022084F8A10005EB8501E1
:104F400001EBC50204F1380101EB82003422314645
:104F5000FBF789F92A463146204602F07BFE012004
:104F60002168486284F8A10000BF002084F8A000F6
:104F700000BF00BFDAE77047014691F8A100704713
:104F800070B504462068856B2068466B05F0040008
:104F9000E0B106F00400C8B12068406B20F00400C6
:104FA0002168486304202168C863D4F8A40040F055
:104FB0000100C4F8A400042084F8A10000BF002070
:104FC00084F8A00000BF2046FFF7D5FF05F00200DF
:104FD000E0B106F00200C8B12068406B20F002008A
:104FE0002168486302202168C863D4F8A40040F017
:104FF0000200C4F8A400042084F8A10000BF00202F
:1050000084F8A00000BF2046FFF7B5FF05F00100BF
:10501000A8B106F0010090B12068406B20F00100BB
:105020002168486301202168C86384F8A10000BF9B
:10503000002084F8A00000BF204600F0A7F805F08B
:105040000800B0B106F0080098B12068406B20F06D
:1050500008002168486308202168C863012084F89B
:10506000A10000BF002084F8A00000BF204600F08F
:105070006BF970BD70B504460CB9012070BD94F891
:10508000A10028B9002084F8A000204600F080F894
:10509000022084F8A1002068806920F07040216817
:1050A0008861D4E901010843E168084321690843A4
:1050B00021688969084321688861206880683249CD
:1050C000084021688860A08A050420688068A1697A
:1050D00029430843216888602068C0682A4908403D
:1050E0002168C860A08B05042068C068216A294334
:1050F00008432168C8602068006923490840216886
:105100000861A08C050420680069A16A294308434E
:1051100021680861206840691B490840216848618E
:10512000A08D050420684069216B2943084321684C
:10513000486194F83500050294F8360006042068AA
:10514000C06A00F07F402168C86246EA050094F812
:10515000341008432168C96A08432168C86220687E
:10516000406B40F00600216848632068806940F089
:105170000100216888610020C4F8A400012084F89F
:10518000A10000207AE7000000F800F0704700005E
:1051900010B5A8B00446142123A8FBF77DF884219C
:1051A00002A8FBF779F86149206888427ED108207F
:1051B00002904FF490700790042109910221089108
:1051C00003210A9101200C9040040D9002A800F0E8
:1051D000BFF908B1FCF798FF00BF5548006840F0E0
:1051E0008060534908600846006800F080600190C4
:1051F00000BF00BF00BF4E481438006840F01000E8
:105200004B49143908600846006800F0100001900E
:1052100000BF00BF00BF0846006840F4007008608F
:105220000846006800F40070019000BF00BF00BF96
:105230000846006840F4806008600846006800F492
:105240008060019000BF00BF00BF0846006840F0CA
:10525000400008600846006800F04000019000BF70
:1052600000BF00BF0846006840F480700860084630
:10527000006800F48070019000BF00BF10202390F0
:10528000022024900020259026900E20279023A90C
:105290002848FFF773F94EF6FF7023900220249000
:1052A0000020259026900E20279000E03CE023A9C6
:1052B0002148FFF763F9F720239002202490002073
:1052C000259026900E20279023A91C48FFF756F919
:1052D0004FF48050239002202490002025902690A7
:1052E0000920279023A91648FFF748F94FF44640B4
:1052F0002390022024900020259026900E202790B5
:1053000023A91048FFF73AF900221146582000F06F
:105310007BF8582000F068F800221146592000F070
:1053200073F8592000F060F828B010BD0068014003
:10533000443802400010024000240240002802408D
:10534000001802400020024070472DE9F041044659
:105350000E46174600BF94F8A000012802D1022093
:10536000BDE8F081012084F8A00000BF022084F88D
:10537000A10007EB870000EBC70104F1380000EB48
:1053800081056E613A462946204602F063FC012001
:105390002168486284F8A10000BF002084F8A000C2
:1053A00000BF00BFDCE7000008B500BF0D48006883
:1053B00040F080500B4908600846006800F08050BB
:1053C000009000BF00BF00BF081D006840F480408F
:1053D000091D08600846006800F48040009000BF86
:1053E00000BF08BD4038024001460846002809DBDE
:1053F00000F01F0301229A4043099B0003F1E023C0
:10540000C3F8002100BF70472DE9F05F80460D46CC
:105410001646002704F04EF9074639462A46334619
:1054200001F00700C0F1070ABAF1040F02D94FF0EA
:10543000040A01E0C0F1070AD14600F1040ABAF1FA
:10544000070F02D24FF0000A01E0A0F1030AD44690
:105450004FF0010A0AFA09FAAAF1010A0AEA020A55
:105460000AFA0CFA4FF0010B0BFA0CFBABF1010B33
:105470000BEA030B4AEA0B042146404604F022F9EA
:10548000BDE8F09F00BF00F00702064B19684FF619
:10549000FF031940044B0B4343EA0221014B1960FF
:1054A00000BF70470CED00E00000FA0538B500249D
:1054B00000BF2048006840F080501E490860084640
:1054C000006800F08050009000BF00BF1A480068DC
:1054D00040F4803018490860FFF75CF9044607E0A3
:1054E000FFF758F9001BB0F57A7F01D9032038BDCA
:1054F0001148406800F48030B0F5803FF0D10E488C
:10550000006840F400300C490860FFF743F9044696
:1055100007E0FFF73FF9001BB0F57A7F01D90320C0
:10552000E5E70548406800F40030B0F5003FF0D1F1
:105530000020DCE74038024000700040034800686B
:1055400040F480700149086070470000007000401E
:105550002DE9F8430446002600250027A846A94661
:10556000207800F0010088B100BFFE48006820F4F8
:105570000000FC49086008460068616B0843F9496F
:10558000086000BF606B08B94FF00108206800F4A4
:105590000020B0F5002F13D1F2488430006820F4C9
:1055A0004010E16B0843EF4984310860E06BB0F5CF
:1055B000801F01D14FF00108E06B08B94FF00109DD
:1055C000206800F48010B0F5801F13D1E5488430C6
:1055D000006820F44000216C0843E24984310860EF
:1055E000206CB0F5800F01D14FF00108206C08B994
:1055F0004FF00109206800F08070B0F1807F01D188
:105600004FF00108207800F02000202870D100BF62
:10561000D4483830006840F08050D24938310860B2
:105620000846006800F08050009000BF00BFCE48E0
:10563000006840F48070CC490860FFF7ABF806467C
:1056400007E0FFF7A7F8801B642802D90320BDE814
:10565000F883C548006800F480700028F1D0C14884
:105660006830006800F4407585B3208E00F4407007
:10567000A8422BD0BB486830006820F44075B94878
:105680006830006840F48030B649683108600846E8
:10569000006820F48030086008460560006800F06B
:1056A000010098B1FFF776F8064608E0FFF772F8B8
:1056B000801B41F28831884201D90320C7E7A948FD
:1056C00068300068C0F340000028EFD000BF208E93
:1056D00000F44070B0F5407F0BD1A248006820F480
:1056E000F810A24A216B114008439E49086006E069
:1056F00010E09C48006820F4F8109A490860994826
:1057000068300068218EC1F30B0108439549683168
:10571000086000BF207800F01000102810D100BFF2
:1057200090488430006820F080708E498431086091
:1057300008460068A16B08438A498431086000BFAD
:10574000208800F48040B0F5804F09D1854888302A
:10575000006820F44030616E084382498831086057
:10576000208800F40040B0F5004F09D17D48883012
:10577000006820F44020A16E08437A49883108600F
:10578000206800F48030B0F5803F09D1754888303A
:10579000006820F44010E16E0843724988310860C7
:1057A000206800F40030B0F5003F09D16D48883022
:1057B000006820F44000216F08436A49883108607E
:1057C000207800F04000402809D166488830006801
:1057D00020F00300616C084362498831086020783A
:1057E00000F08000802809D15E488830006820F0F1
:1057F0000C00A16C08435B4988310860208800F4E4
:105800008070B0F5807F09D156488830006820F05C
:105810003000E16C0843534988310860208800F467
:105820000070B0F5007F09D14E488830006820F044
:10583000C000216D08434B4988310860208800F47E
:105840008060B0F5806F09D146488830006820F448
:105850004070616D0843434988310860208800F436
:105860000060B0F5006F09D13E488830006820F430
:105870004060A16D08433B4988310860208800F4EE
:105880008050B0F5805F09D136488830006820F438
:105890004050E16D0843334988310860208800F4A6
:1058A0000050B0F5005F09D12E488830006820F420
:1058B0004040216E08432B4988310860206800F47D
:1058C0008000B0F5800F09D126488830006820F0AC
:1058D0008060A16F0843234988310860206800F484
:1058E0000010B0F5001F0FD11E488830006820F06E
:1058F0000060E16F08431B4988310860E06FB0F138
:10590000006F01D14FF00109207800F0080008284D
:1059100001D14FF00109206800F48020B0F5802FFC
:1059200009D110488830006820F04070616F08434A
:105930000C4988310860206800F40000B0F5000FC1
:105940000AD108488830006820F08050D4F88010D0
:105950000843044988310860B8F1010F0DD0206870
:1059600006E000000838024000700040FFFCFF0F16
:1059700000F00070B0F1007F7DD1AD48006820F0EC
:105980008060AB490860FEF705FF064606E0FEF7BB
:1059900001FF801B642801D9032058E6A448006851
:1059A000C0F3C0600028F2D1207800F00100B8B147
:1059B000606BA8B99E4884300068C0F301459C48DC
:1059C00084300068C0F303676068800140EA0540E6
:1059D00040EA0761207A41EA007095498431086005
:1059E000206800F40020B0F5002F03D1E06BB0F583
:1059F000801F09D0206800F48010B0F5801F24D1EA
:105A0000206CB0F5800F20D1894884300068C0F345
:105A10000145874884300068C0F3027760688001E0
:105A200040EA0541207B41EA006040EA0770804976
:105A3000843108607E488C30006820F01F00616A65
:105A4000491E08437A498C310860206800F0807054
:105A5000B0F1807F17D1764884300068C0F30365C9
:105A6000734884300068C0F3027760688101208A3F
:105A700041EA004000E031E040EA056040EA07709A
:105A80006B4984310860206800F00070B0F1007F3D
:105A90000DD160688101208A41EA0041207B41EA02
:105AA0000061207A41EA00706149843108606048F1
:105AB000006840F080605E490860FEF76BFE0646B5
:105AC00006E0FEF767FE801B642801D90320BEE5CF
:105AD00057480068C0F3C0600028F2D0B9F1010F48
